{
  "_format": "hh-sol-artifact-1",
  "contractName": "BuyABCACoffee",
  "sourceName": "contracts/BuyABCACoffee.sol",
  "abi": [
    {
      "inputs": [],
      "stateMutability": "nonpayable",
      "type": "constructor"
    },
    {
      "anonymous": false,
      "inputs": [
        {
          "indexed": true,
          "internalType": "address",
          "name": "from",
          "type": "address"
        },
        {
          "indexed": false,
          "internalType": "uint256",
          "name": "timestamp",
          "type": "uint256"
        },
        {
          "indexed": false,
          "internalType": "string",
          "name": "name",
          "type": "string"
        },
        {
          "indexed": false,
          "internalType": "string",
          "name": "message",
          "type": "string"
        }
      ],
      "name": "NewMemo",
      "type": "event"
    },
    {
      "inputs": [
        {
          "internalType": "string",
          "name": "_name",
          "type": "string"
        },
        {
          "internalType": "string",
          "name": "_message",
          "type": "string"
        }
      ],
      "name": "buyCoffee",
      "outputs": [],
      "stateMutability": "payable",
      "type": "function"
    },
    {
      "inputs": [],
      "name": "getMemos",
      "outputs": [
        {
          "components": [
            {
              "internalType": "address",
              "name": "from",
              "type": "address"
            },
            {
              "internalType": "uint256",
              "name": "timestamp",
              "type": "uint256"
            },
            {
              "internalType": "string",
              "name": "name",
              "type": "string"
            },
            {
              "internalType": "string",
              "name": "message",
              "type": "string"
            }
          ],
          "internalType": "struct BuyABCACoffee.Memo[]",
          "name": "",
          "type": "tuple[]"
        }
      ],
      "stateMutability": "view",
      "type": "function"
    },
    {
      "inputs": [],
      "name": "withdrawTips",
      "outputs": [],
      "stateMutability": "nonpayable",
      "type": "function"
    }
  ],
  "bytecode": "0x608060405234801561001057600080fd5b50336000806101000a81548173ffffffffffffffffffffffffffffffffffffffff021916908373ffffffffffffffffffffffffffffffffffffffff160217905550610aa8806100606000396000f3fe6080604052600436106100345760003560e01c8063204206e1146100395780633aaa74b214610055578063865c51721461006c575b600080fd5b610053600480360381019061004e919061065f565b610097565b005b34801561006157600080fd5b5061006a61021f565b005b34801561007857600080fd5b5061008161027f565b60405161008e91906108e5565b60405180910390f35b600034116100da576040517f08c379a00000000000000000000000000000000000000000000000000000000081526004016100d190610964565b60405180910390fd5b600160405180608001604052803373ffffffffffffffffffffffffffffffffffffffff16815260200142815260200184815260200183815250908060018154018082558091505060019003906000526020600020906004020160009091909190915060008201518160000160006101000a81548173ffffffffffffffffffffffffffffffffffffffff021916908373ffffffffffffffffffffffffffffffffffffffff1602179055506020820151816001015560408201518160020190805190602001906101a9929190610462565b5060608201518160030190805190602001906101c6929190610462565b5050503373ffffffffffffffffffffffffffffffffffffffff167fc56140e05f516509ae28110e0f72e17558a7561630dad2647c3ae87d986e365c428484604051610213939291906109cc565b60405180910390a25050565b60008054906101000a900473ffffffffffffffffffffffffffffffffffffffff1673ffffffffffffffffffffffffffffffffffffffff166108fc479081150290604051600060405180830381858888f1935050505061027d57600080fd5b565b60606001805480602002602001604051908101604052809291908181526020016000905b8282101561045957838290600052602060002090600402016040518060800160405290816000820160009054906101000a900473ffffffffffffffffffffffffffffffffffffffff1673ffffffffffffffffffffffffffffffffffffffff1673ffffffffffffffffffffffffffffffffffffffff1681526020016001820154815260200160028201805461033690610a40565b80601f016020809104026020016040519081016040528092919081815260200182805461036290610a40565b80156103af5780601f10610384576101008083540402835291602001916103af565b820191906000526020600020905b81548152906001019060200180831161039257829003601f168201915b505050505081526020016003820180546103c890610a40565b80601f01602080910402602001604051908101604052809291908181526020018280546103f490610a40565b80156104415780601f1061041657610100808354040283529160200191610441565b820191906000526020600020905b81548152906001019060200180831161042457829003601f168201915b505050505081525050815260200190600101906102a3565b50505050905090565b82805461046e90610a40565b90600052602060002090601f01602090048101928261049057600085556104d7565b82601f106104a957805160ff19168380011785556104d7565b828001600101855582156104d7579182015b828111156104d65782518255916020019190600101906104bb565b5b5090506104e491906104e8565b5090565b5b808211156105015760008160009055506001016104e9565b5090565b6000604051905090565b600080fd5b600080fd5b600080fd5b600080fd5b6000601f19601f8301169050919050565b7f4e487b7100000000000000000000000000000000000000000000000000000000600052604160045260246000fd5b61056c82610523565b810181811067ffffffffffffffff8211171561058b5761058a610534565b5b80604052505050565b600061059e610505565b90506105aa8282610563565b919050565b600067ffffffffffffffff8211156105ca576105c9610534565b5b6105d382610523565b9050602081019050919050565b82818337600083830152505050565b60006106026105fd846105af565b610594565b90508281526020810184848401111561061e5761061d61051e565b5b6106298482856105e0565b509392505050565b600082601f83011261064657610645610519565b5b81356106568482602086016105ef565b91505092915050565b600080604083850312156106765761067561050f565b5b600083013567ffffffffffffffff81111561069457610693610514565b5b6106a085828601610631565b925050602083013567ffffffffffffffff8111156106c1576106c0610514565b5b6106cd85828601610631565b9150509250929050565b600081519050919050565b600082825260208201905092915050565b6000819050602082019050919050565b600073ffffffffffffffffffffffffffffffffffffffff82169050919050565b600061072e82610703565b9050919050565b61073e81610723565b82525050565b6000819050919050565b61075781610744565b82525050565b600081519050919050565b600082825260208201905092915050565b60005b8381101561079757808201518184015260208101905061077c565b838111156107a6576000848401525b50505050565b60006107b78261075d565b6107c18185610768565b93506107d1818560208601610779565b6107da81610523565b840191505092915050565b60006080830160008301516107fd6000860182610735565b506020830151610810602086018261074e565b506040830151848203604086015261082882826107ac565b9150506060830151848203606086015261084282826107ac565b9150508091505092915050565b600061085b83836107e5565b905092915050565b6000602082019050919050565b600061087b826106d7565b61088581856106e2565b935083602082028501610897856106f3565b8060005b858110156108d357848403895281516108b4858261084f565b94506108bf83610863565b925060208a0199505060018101905061089b565b50829750879550505050505092915050565b600060208201905081810360008301526108ff8184610870565b905092915050565b600082825260208201905092915050565b7f63616e27742062757920636f6666656520666f72206672656521000000000000600082015250565b600061094e601a83610907565b915061095982610918565b602082019050919050565b6000602082019050818103600083015261097d81610941565b9050919050565b61098d81610744565b82525050565b600061099e8261075d565b6109a88185610907565b93506109b8818560208601610779565b6109c181610523565b840191505092915050565b60006060820190506109e16000830186610984565b81810360208301526109f38185610993565b90508181036040830152610a078184610993565b9050949350505050565b7f4e487b7100000000000000000000000000000000000000000000000000000000600052602260045260246000fd5b60006002820490506001821680610a5857607f821691505b60208210811415610a6c57610a6b610a11565b5b5091905056fea2646970667358221220bd117228e1e9dc2aa00616f814c999434d57ff195bc542a3d74e40486ee57c9e64736f6c63430008090033",
  "linkReferences": {},
  "deployedLinkReferences": {}
}